{
  "abi": [
    {
      "inputs": [],
      "stateMutability": "nonpayable",
      "type": "constructor"
    },
    {
      "inputs": [],
      "name": "ErrAlreadyActivatedStreak",
      "type": "error"
    },
    {
      "inputs": [],
      "name": "ErrCallerNotDelegated",
      "type": "error"
    },
    {
      "inputs": [],
      "name": "ErrFreezeTimeEnded",
      "type": "error"
    },
    {
      "inputs": [],
      "name": "ErrInsufficientPayment",
      "type": "error"
    },
    {
      "inputs": [],
      "name": "ErrInvalidLength",
      "type": "error"
    },
    {
      "inputs": [],
      "name": "ErrInvalidOrderOfRestorationCosts",
      "type": "error"
    },
    {
      "inputs": [],
      "name": "ErrInvalidResetDuration",
      "type": "error"
    },
    {
      "inputs": [],
      "name": "ErrInvalidStreakLifeTime",
      "type": "error"
    },
    {
      "inputs": [],
      "name": "ErrNewUserCannotRestore",
      "type": "error"
    },
    {
      "inputs": [],
      "name": "ErrNoLostStreak",
      "type": "error"
    },
    {
      "inputs": [],
      "name": "ErrStartNewStreakByDelegatee",
      "type": "error"
    },
    {
      "inputs": [],
      "name": "ErrZeroLostStreakCount",
      "type": "error"
    },
    {
      "anonymous": false,
      "inputs": [
        {
          "indexed": true,
          "internalType": "address",
          "name": "prayer",
          "type": "address"
        },
        {
          "components": [
            {
              "internalType": "uint64",
              "name": "syncedDayIndex",
              "type": "uint64"
            },
            {
              "internalType": "uint64",
              "name": "countPerDay",
              "type": "uint64"
            }
          ],
          "indexed": false,
          "internalType": "struct ICheckin.CheckerCountInfo",
          "name": "prayerCountInfo",
          "type": "tuple"
        }
      ],
      "name": "CheckerCountSynced",
      "type": "event"
    },
    {
      "anonymous": false,
      "inputs": [
        {
          "indexed": false,
          "internalType": "uint256",
          "name": "newFreezePeriod",
          "type": "uint256"
        }
      ],
      "name": "FreezePeriodUpdated",
      "type": "event"
    },
    {
      "anonymous": false,
      "inputs": [
        {
          "indexed": false,
          "internalType": "uint256",
          "name": "time",
          "type": "uint256"
        }
      ],
      "name": "InitialTimeUpdated",
      "type": "event"
    },
    {
      "anonymous": false,
      "inputs": [
        {
          "indexed": false,
          "internalType": "uint8",
          "name": "version",
          "type": "uint8"
        }
      ],
      "name": "Initialized",
      "type": "event"
    },
    {
      "anonymous": false,
      "inputs": [
        {
          "indexed": false,
          "internalType": "address",
          "name": "newPaymentToken",
          "type": "address"
        }
      ],
      "name": "PaymentTokenUpdated",
      "type": "event"
    },
    {
      "anonymous": false,
      "inputs": [
        {
          "indexed": false,
          "internalType": "uint256",
          "name": "newResetDuration",
          "type": "uint256"
        }
      ],
      "name": "ResetDurationUpdated",
      "type": "event"
    },
    {
      "anonymous": false,
      "inputs": [
        {
          "components": [
            {
              "internalType": "uint32",
              "name": "lowerMilestone",
              "type": "uint32"
            },
            {
              "internalType": "uint80",
              "name": "costInToken",
              "type": "uint80"
            }
          ],
          "indexed": false,
          "internalType": "struct ICheckin.RestorationCost[]",
          "name": "newRestorationCosts",
          "type": "tuple[]"
        }
      ],
      "name": "RestorationCostUpdated",
      "type": "event"
    },
    {
      "anonymous": false,
      "inputs": [
        {
          "indexed": true,
          "internalType": "bytes32",
          "name": "role",
          "type": "bytes32"
        },
        {
          "indexed": true,
          "internalType": "bytes32",
          "name": "previousAdminRole",
          "type": "bytes32"
        },
        {
          "indexed": true,
          "internalType": "bytes32",
          "name": "newAdminRole",
          "type": "bytes32"
        }
      ],
      "name": "RoleAdminChanged",
      "type": "event"
    },
    {
      "anonymous": false,
      "inputs": [
        {
          "indexed": true,
          "internalType": "bytes32",
          "name": "role",
          "type": "bytes32"
        },
        {
          "indexed": true,
          "internalType": "address",
          "name": "account",
          "type": "address"
        },
        {
          "indexed": true,
          "internalType": "address",
          "name": "sender",
          "type": "address"
        }
      ],
      "name": "RoleGranted",
      "type": "event"
    },
    {
      "anonymous": false,
      "inputs": [
        {
          "indexed": true,
          "internalType": "bytes32",
          "name": "role",
          "type": "bytes32"
        },
        {
          "indexed": true,
          "internalType": "address",
          "name": "account",
          "type": "address"
        },
        {
          "indexed": true,
          "internalType": "address",
          "name": "sender",
          "type": "address"
        }
      ],
      "name": "RoleRevoked",
      "type": "event"
    },
    {
      "anonymous": false,
      "inputs": [
        {
          "indexed": false,
          "internalType": "uint256",
          "name": "streakLifeTime",
          "type": "uint256"
        }
      ],
      "name": "StreakLifeTimeChanged",
      "type": "event"
    },
    {
      "anonymous": false,
      "inputs": [
        {
          "indexed": true,
          "internalType": "address",
          "name": "user",
          "type": "address"
        },
        {
          "indexed": true,
          "internalType": "uint256",
          "name": "restoredStreakCount",
          "type": "uint256"
        },
        {
          "indexed": true,
          "internalType": "uint256",
          "name": "lastUpdated",
          "type": "uint256"
        },
        {
          "indexed": false,
          "internalType": "uint256",
          "name": "costInPaymentToken",
          "type": "uint256"
        }
      ],
      "name": "StreakRestored",
      "type": "event"
    },
    {
      "anonymous": false,
      "inputs": [
        {
          "indexed": true,
          "internalType": "address",
          "name": "user",
          "type": "address"
        },
        {
          "indexed": true,
          "internalType": "uint256",
          "name": "newAmount",
          "type": "uint256"
        },
        {
          "indexed": true,
          "internalType": "uint256",
          "name": "newLastUpdated",
          "type": "uint256"
        },
        {
          "indexed": false,
          "internalType": "uint256",
          "name": "longestStreakCount",
          "type": "uint256"
        }
      ],
      "name": "StreakUpdated",
      "type": "event"
    },
    {
      "anonymous": false,
      "inputs": [
        {
          "indexed": false,
          "internalType": "address",
          "name": "newTreasury",
          "type": "address"
        }
      ],
      "name": "TreasuryUpdated",
      "type": "event"
    },
    {
      "inputs": [],
      "name": "DEFAULT_ADMIN_ROLE",
      "outputs": [
        {
          "internalType": "bytes32",
          "name": "",
          "type": "bytes32"
        }
      ],
      "stateMutability": "view",
      "type": "function"
    },
    {
      "inputs": [
        {
          "internalType": "address",
          "name": "to",
          "type": "address"
        }
      ],
      "name": "activateStreak",
      "outputs": [],
      "stateMutability": "nonpayable",
      "type": "function"
    },
    {
      "inputs": [
        {
          "internalType": "address[]",
          "name": "addresses",
          "type": "address[]"
        },
        {
          "internalType": "uint256[]",
          "name": "streaks",
          "type": "uint256[]"
        }
      ],
      "name": "forceRestoreStreak",
      "outputs": [],
      "stateMutability": "nonpayable",
      "type": "function"
    },
    {
      "inputs": [
        {
          "internalType": "address",
          "name": "user",
          "type": "address"
        }
      ],
      "name": "getActivationStatus",
      "outputs": [
        {
          "internalType": "bool",
          "name": "isLostStreak",
          "type": "bool"
        },
        {
          "internalType": "bool",
          "name": "hasCheckedToday",
          "type": "bool"
        }
      ],
      "stateMutability": "view",
      "type": "function"
    },
    {
      "inputs": [],
      "name": "getAllRestorationCosts",
      "outputs": [
        {
          "components": [
            {
              "internalType": "uint32",
              "name": "lowerMilestone",
              "type": "uint32"
            },
            {
              "internalType": "uint80",
              "name": "costInToken",
              "type": "uint80"
            }
          ],
          "internalType": "struct ICheckin.RestorationCost[]",
          "name": "",
          "type": "tuple[]"
        }
      ],
      "stateMutability": "view",
      "type": "function"
    },
    {
      "inputs": [],
      "name": "getFreezePeriod",
      "outputs": [
        {
          "internalType": "uint256",
          "name": "",
          "type": "uint256"
        }
      ],
      "stateMutability": "view",
      "type": "function"
    },
    {
      "inputs": [],
      "name": "getInitialTime",
      "outputs": [
        {
          "internalType": "uint256",
          "name": "",
          "type": "uint256"
        }
      ],
      "stateMutability": "view",
      "type": "function"
    },
    {
      "inputs": [],
      "name": "getPaymentToken",
      "outputs": [
        {
          "internalType": "address",
          "name": "",
          "type": "address"
        }
      ],
      "stateMutability": "view",
      "type": "function"
    },
    {
      "inputs": [],
      "name": "getResetDuration",
      "outputs": [
        {
          "internalType": "uint256",
          "name": "",
          "type": "uint256"
        }
      ],
      "stateMutability": "view",
      "type": "function"
    },
    {
      "inputs": [
        {
          "internalType": "uint256",
          "name": "lostStreakCount",
          "type": "uint256"
        }
      ],
      "name": "getRestorationCosts",
      "outputs": [
        {
          "internalType": "uint256",
          "name": "costInPaymentToken",
          "type": "uint256"
        }
      ],
      "stateMutability": "view",
      "type": "function"
    },
    {
      "inputs": [
        {
          "internalType": "bytes32",
          "name": "role",
          "type": "bytes32"
        }
      ],
      "name": "getRoleAdmin",
      "outputs": [
        {
          "internalType": "bytes32",
          "name": "",
          "type": "bytes32"
        }
      ],
      "stateMutability": "view",
      "type": "function"
    },
    {
      "inputs": [
        {
          "internalType": "bytes32",
          "name": "role",
          "type": "bytes32"
        },
        {
          "internalType": "uint256",
          "name": "index",
          "type": "uint256"
        }
      ],
      "name": "getRoleMember",
      "outputs": [
        {
          "internalType": "address",
          "name": "",
          "type": "address"
        }
      ],
      "stateMutability": "view",
      "type": "function"
    },
    {
      "inputs": [
        {
          "internalType": "bytes32",
          "name": "role",
          "type": "bytes32"
        }
      ],
      "name": "getRoleMemberCount",
      "outputs": [
        {
          "internalType": "uint256",
          "name": "",
          "type": "uint256"
        }
      ],
      "stateMutability": "view",
      "type": "function"
    },
    {
      "inputs": [
        {
          "internalType": "address",
          "name": "user",
          "type": "address"
        }
      ],
      "name": "getStreak",
      "outputs": [
        {
          "internalType": "uint256",
          "name": "currentStreakCount",
          "type": "uint256"
        },
        {
          "internalType": "uint256",
          "name": "lastActivated",
          "type": "uint256"
        },
        {
          "internalType": "uint256",
          "name": "longestStreakCount",
          "type": "uint256"
        },
        {
          "internalType": "uint256",
          "name": "lostStreakCount",
          "type": "uint256"
        }
      ],
      "stateMutability": "view",
      "type": "function"
    },
    {
      "inputs": [],
      "name": "getStreakLifeTime",
      "outputs": [
        {
          "internalType": "uint256",
          "name": "",
          "type": "uint256"
        }
      ],
      "stateMutability": "view",
      "type": "function"
    },
    {
      "inputs": [],
      "name": "getTreasury",
      "outputs": [
        {
          "internalType": "address",
          "name": "",
          "type": "address"
        }
      ],
      "stateMutability": "view",
      "type": "function"
    },
    {
      "inputs": [
        {
          "internalType": "bytes32",
          "name": "role",
          "type": "bytes32"
        },
        {
          "internalType": "address",
          "name": "account",
          "type": "address"
        }
      ],
      "name": "grantRole",
      "outputs": [],
      "stateMutability": "nonpayable",
      "type": "function"
    },
    {
      "inputs": [
        {
          "internalType": "bytes32",
          "name": "role",
          "type": "bytes32"
        },
        {
          "internalType": "address",
          "name": "account",
          "type": "address"
        }
      ],
      "name": "hasRole",
      "outputs": [
        {
          "internalType": "bool",
          "name": "",
          "type": "bool"
        }
      ],
      "stateMutability": "view",
      "type": "function"
    },
    {
      "inputs": [
        {
          "internalType": "uint256",
          "name": "streakLifeTime",
          "type": "uint256"
        },
        {
          "internalType": "uint256",
          "name": "resetTime",
          "type": "uint256"
        },
        {
          "internalType": "uint256",
          "name": "freezeTime",
          "type": "uint256"
        },
        {
          "internalType": "address",
          "name": "paymentToken",
          "type": "address"
        },
        {
          "internalType": "address",
          "name": "treasury",
          "type": "address"
        },
        {
          "components": [
            {
              "internalType": "uint32",
              "name": "lowerMilestone",
              "type": "uint32"
            },
            {
              "internalType": "uint80",
              "name": "costInToken",
              "type": "uint80"
            }
          ],
          "internalType": "struct ICheckin.RestorationCost[]",
          "name": "restorationCosts",
          "type": "tuple[]"
        }
      ],
      "name": "initialize",
      "outputs": [],
      "stateMutability": "nonpayable",
      "type": "function"
    },
    {
      "inputs": [
        {
          "internalType": "address",
          "name": "user",
          "type": "address"
        }
      ],
      "name": "isRestorable",
      "outputs": [
        {
          "internalType": "bool",
          "name": "",
          "type": "bool"
        }
      ],
      "stateMutability": "view",
      "type": "function"
    },
    {
      "inputs": [
        {
          "internalType": "bytes32",
          "name": "role",
          "type": "bytes32"
        },
        {
          "internalType": "address",
          "name": "account",
          "type": "address"
        }
      ],
      "name": "renounceRole",
      "outputs": [],
      "stateMutability": "nonpayable",
      "type": "function"
    },
    {
      "inputs": [
        {
          "internalType": "address",
          "name": "to",
          "type": "address"
        },
        {
          "internalType": "uint256",
          "name": "maxAmountIn",
          "type": "uint256"
        }
      ],
      "name": "restoreStreak",
      "outputs": [],
      "stateMutability": "nonpayable",
      "type": "function"
    },
    {
      "inputs": [
        {
          "internalType": "bytes32",
          "name": "role",
          "type": "bytes32"
        },
        {
          "internalType": "address",
          "name": "account",
          "type": "address"
        }
      ],
      "name": "revokeRole",
      "outputs": [],
      "stateMutability": "nonpayable",
      "type": "function"
    },
    {
      "inputs": [
        {
          "internalType": "uint256",
          "name": "newFreezePeriod",
          "type": "uint256"
        }
      ],
      "name": "setFreezePeriod",
      "outputs": [],
      "stateMutability": "nonpayable",
      "type": "function"
    },
    {
      "inputs": [
        {
          "internalType": "address",
          "name": "paymentToken",
          "type": "address"
        }
      ],
      "name": "setPaymentToken",
      "outputs": [],
      "stateMutability": "nonpayable",
      "type": "function"
    },
    {
      "inputs": [
        {
          "internalType": "uint256",
          "name": "newResetDuration",
          "type": "uint256"
        }
      ],
      "name": "setResetDuration",
      "outputs": [],
      "stateMutability": "nonpayable",
      "type": "function"
    },
    {
      "inputs": [
        {
          "components": [
            {
              "internalType": "uint32",
              "name": "lowerMilestone",
              "type": "uint32"
            },
            {
              "internalType": "uint80",
              "name": "costInToken",
              "type": "uint80"
            }
          ],
          "internalType": "struct ICheckin.RestorationCost[]",
          "name": "restorationCosts",
          "type": "tuple[]"
        }
      ],
      "name": "setRestorationCosts",
      "outputs": [],
      "stateMutability": "nonpayable",
      "type": "function"
    },
    {
      "inputs": [
        {
          "internalType": "address",
          "name": "treasury",
          "type": "address"
        }
      ],
      "name": "setTreasury",
      "outputs": [],
      "stateMutability": "nonpayable",
      "type": "function"
    },
    {
      "inputs": [
        {
          "internalType": "bytes4",
          "name": "interfaceId",
          "type": "bytes4"
        }
      ],
      "name": "supportsInterface",
      "outputs": [
        {
          "internalType": "bool",
          "name": "",
          "type": "bool"
        }
      ],
      "stateMutability": "view",
      "type": "function"
    }
  ],
  "bytecode": {
    "object": "0x60806040523480156200001157600080fd5b506200001f60003362000025565b6200015a565b62000031828262000035565b5050565b62000041828262000060565b60008281526002602052604090206200005b9082620000e8565b505050565b60008281526001602090815260408083206001600160a01b038516845290915290205460ff16620000315760008281526001602081815260408084206001600160a01b0386168086529252808420805460ff19169093179092559051339285917f2f8788117e7eff1d82e926ec794901d17c78024a50270940304540a733656f0d9190a45050565b6000620000ff836001600160a01b03841662000108565b90505b92915050565b6000818152600183016020526040812054620001515750815460018181018455600084815260208082209093018490558454848252828601909352604090209190915562000102565b50600062000102565b612118806200016a6000396000f3fe608060405234801561001057600080fd5b50600436106101cf5760003560e01c806364c02908116101045780639fe4f9d6116100a2578063d41c3a6511610071578063d41c3a65146103f5578063d547741f14610406578063f0f4426014610419578063fc44e00b1461042c57600080fd5b80639fe4f9d6146103ca578063a217fddf146103d2578063ca15c873146103da578063d0b294da146103ed57600080fd5b80636d16c15b116100de5780636d16c15b14610367578063886ce65c146103915780639010d07c146103a457806391d14854146103b757600080fd5b806364c02908146103395780636a326ab1146103415780636c7976d51461035457600080fd5b8063333ebe12116101715780633b19e84a1161014b5780633b19e84a146102bb57806343afef80146102e057806357120165146102f35780635eeadb0d1461030657600080fd5b8063333ebe121461028057806336568abe1461029357806336cee514146102a657600080fd5b8063199fef65116101ad578063199fef6514610223578063248a9ca3146102365780632f2ff15d1461025a578063317113091461026d57600080fd5b806301ffc9a7146101d457806307a4f002146101fc5780631614252f14610211575b600080fd5b6101e76101e23660046119fc565b61043f565b60405190151581526020015b60405180910390f35b61020f61020a366004611ae5565b61046a565b005b6006545b6040519081526020016101f3565b61020f610231366004611bd9565b610482565b610215610244366004611c45565b6000908152600160208190526040909120015490565b61020f610268366004611c7a565b610515565b61020f61027b366004611ca6565b610540565b6101e761028e366004611ca6565b61054c565b61020f6102a1366004611c7a565b6105ed565b6102ae61066c565b6040516101f39190611cc1565b6008546001600160a01b03165b6040516001600160a01b0390911681526020016101f3565b61020f6102ee366004611d1f565b6106e6565b61020f610301366004611c45565b6106f0565b610319610314366004611ca6565b610704565b6040805194855260208501939093529183015260608201526080016101f3565b600454610215565b61020f61034f366004611ca6565b6107a6565b61020f610362366004611d49565b6107ba565b61037a610375366004611ca6565b610966565b6040805192151583529015156020830152016101f3565b61020f61039f366004611c45565b6109d6565b6102c86103b2366004611dfd565b6109ea565b6101e76103c5366004611c7a565b610a09565b600754610215565b610215600081565b6102156103e8366004611c45565b610a34565b600354610215565b6009546001600160a01b03166102c8565b61020f610414366004611c7a565b610a4b565b61020f610427366004611ca6565b610a71565b61021561043a366004611c45565b610a85565b60006001600160e01b03198216635a05180f60e01b1480610464575061046482610a90565b92915050565b600061047581610ac5565b61047e82610acf565b5050565b600061048d81610ac5565b838281146104ae57604051638234cda560e01b815260040160405180910390fd5b60005b8181101561050c576105038585838181106104ce576104ce611e1f565b905060200201358888848181106104e7576104e7611e1f565b90506020020160208101906104fc9190611ca6565b6000610c8f565b506001016104b1565b50505050505050565b6000828152600160208190526040909120015461053181610ac5565b61053b8383610d2c565b505050565b61054981610d4e565b50565b6001600160a01b0381166000908152600560209081526040808320815160608101835281548152600182015493810193909352600201549082015261059381602001511590565b156105a15750600092915050565b6000806105ad83610e43565b90925090506000600182018311905060006105d5836003546004546007549202010142101590565b90508180156105e2575080155b979650505050505050565b6001600160a01b03811633146106625760405162461bcd60e51b815260206004820152602f60248201527f416363657373436f6e74726f6c3a2063616e206f6e6c792072656e6f756e636560448201526e103937b632b9903337b91039b2b63360891b60648201526084015b60405180910390fd5b61047e8282610e65565b6060600a805480602002602001604051908101604052809291908181526020016000905b828210156106dd576000848152602090819020604080518082019091529084015463ffffffff8116825264010000000090046001600160501b031681830152825260019092019101610690565b50505050905090565b61047e8282610e87565b60006106fb81610ac5565b61047e82610fe6565b6001600160a01b03811660009081526005602090815260408083208151606081018352815481526001820154938101849052600290910154918101919091528291829182916107615760008060008094509450945094505061079f565b60008061076d83610e43565b90925090506001810182118015610787578351945061078c565b835197505b8360200151965083604001519550505050505b9193509193565b60006107b181610ac5565b61047e82611022565b60006107c581610ac5565b600054610100900460ff16158080156107e55750600054600160ff909116105b806107ff5750303b1580156107ff575060005460ff166001145b6108625760405162461bcd60e51b815260206004820152602e60248201527f496e697469616c697a61626c653a20636f6e747261637420697320616c72656160448201526d191e481a5b9a5d1a585b1a5e995960921b6064820152608401610659565b6000805460ff191660011790558015610885576000805461ff0019166101001790555b61088e89611070565b610897886110c5565b6108a087610fe6565b6108a986611022565b6108b28561111c565b61090d8484808060200260200160405190810160405280939291908181526020016000905b82821015610903576108f460408302860136819003810190611e35565b815260200190600101906108d7565b5050505050610acf565b61091561116a565b801561095b576000805461ff0019169055604051600181527f7f26b83ff96e1f2b6a682f133852f6798a09c465da95921460cefb38474024989060200160405180910390a15b505050505050505050565b6001600160a01b038116600090815260056020908152604080832081516060810183528154815260018201549381018490526002909101549181019190915282916109b75750600093849350915050565b6000806109c383610e43565b6001810182119891149650945050505050565b60006109e181610ac5565b61047e826110c5565b6000828152600260205260408120610a0290836111fe565b9392505050565b60009182526001602090815260408084206001600160a01b0393909316845291905290205460ff1690565b60008181526002602052604081206104649061120a565b60008281526001602081905260409091200154610a6781610ac5565b61053b8383610e65565b6000610a7c81610ac5565b61047e8261111c565b600061046482611214565b60006001600160e01b03198216637965db0b60e01b148061046457506301ffc9a760e01b6001600160e01b0319831614610464565b6105498133611328565b610adb600a60006119c0565b8051801580610aeb575081518114155b15610b0957604051638234cda560e01b815260040160405180910390fd5b600a82600081518110610b1e57610b1e611e1f565b60209081029190910181015182546001818101855560009485529383902082519101805492909301516001600160501b0316640100000000026001600160701b031990921663ffffffff909116171790555b81811015610c535782610b84600183611e67565b81518110610b9457610b94611e1f565b60200260200101516000015163ffffffff16838281518110610bb857610bb8611e1f565b60200260200101516000015163ffffffff1611610be857604051631b98670360e21b815260040160405180910390fd5b600a838281518110610bfc57610bfc611e1f565b60209081029190910181015182546001818101855560009485529383902082519101805492909301516001600160501b0316640100000000026001600160701b031990921663ffffffff9091161717905501610b70565b507fdb16718cd968791fb87ccb9de4392526cf98a50acf9f2ce4a3e66e95e6a5138082604051610c839190611cc1565b60405180910390a15050565b600081610c9f5783600101610ca2565b60015b6001600160a01b0384166000908152600560205260409020818155426001820155600281015491925090821115610cdb57600281018290555b4282856001600160a01b03167f62fbe39954276c01e2d7a17f048cec9d25cc2099b61f7858a7accd2b4216382e8460020154604051610d1c91815260200190565b60405180910390a4509392505050565b610d368282611381565b600082815260026020526040902061053b90826113ec565b6001600160a01b038116600090815260056020908152604091829020825160608101845281548152600182015492810183905260029091015492810192909252610da057805161053b90836000610c8f565b600080610dac83610e43565b60035460045460075493955091935060018401851192848614928502909101014210158115610dee57604051631bbe8fb560e01b815260040160405180910390fd5b6001600160a01b0387163314801590610e045750825b8015610e0e575080155b15610e2c576040516361ed2e4360e11b815260040160405180910390fd5b8551610e39908885610c8f565b5050505050505050565b600080610e4f42611401565b9150610e5e8360200151611401565b9050915091565b610e6f828261141f565b600082815260026020526040902061053b9082611486565b6001600160a01b038216600090815260056020908152604091829020825160608101845281548152600182015492810183905260029091015492810192909252610ee45760405163ab0daa4360e01b815260040160405180910390fd5b80516000819003610f0857604051632b499cf360e11b815260040160405180910390fd5b600080610f1484610e43565b909250905060018101821180610f3d5760405163578aeb8560e11b815260040160405180910390fd5b6000610f56836003546004546007549202010142101590565b90508015610f77576040516350af743b60e11b815260040160405180910390fd5b610f8385896000610c8f565b506000610f90868961149b565b90508660200151868a6001600160a01b03167ff28bbd867919567fe2160a544c4eb8e4e4c701374125dec9914d35f3f6f2cfa084604051610fd391815260200190565b60405180910390a4505050505050505050565b60078190556040518181527fe5cfb067fd3553c2c8f52bd13990a943e4eedc525c139207ebf6ae790f6d190b906020015b60405180910390a150565b600980546001600160a01b0319166001600160a01b0383169081179091556040519081527fbd4032c1c91da2791730ea1bbc82c6b6f857da7c0a8318143d19ef74e62cd91390602001611017565b80600003611090576040516225d70160e31b815260040160405180910390fd5b60048190556040518181527f146873d234c634d82ab629efeea3ad261275c3b4c733e1e2e6487f76cbc5a60290602001611017565b60045481106110e75760405163198385cf60e01b815260040160405180910390fd5b60068190556040518181527f4534d7ef285882c47146e4b0a0f0192a2e3e8dc978949664ddf2c82c5baef36790602001611017565b600880546001600160a01b0319166001600160a01b0383169081179091556040519081527f7dae230f18360d76a040c81f050aa14eb9d6dc7901b20fc5d855e2a20fe814d190602001611017565b6004546111779042611e90565b600381815560019160009061118d908490611e67565b9091555050600454600380546000906111a7908490611eb2565b9091555050600654600380546000906111c1908490611ec9565b90915550506003546040519081527fe2c5cbdae5c8cc0fd0fb5e290b9b861f04ab4f837d07e0d600d25a94a51b12309060200160405180910390a1565b6000610a0283836114ee565b6000610464825490565b600080600a805480602002602001604051908101604052809291908181526020016000905b82821015611286576000848152602090819020604080518082019091529084015463ffffffff8116825264010000000090046001600160501b031681830152825260019092019101611239565b50508251929350505060008190036112a2575060009392505050565b60006112af600183611e67565b90505b8281815181106112c4576112c4611e1f565b60200260200101516000015163ffffffff16851061130a578281815181106112ee576112ee611e1f565b6020026020010151602001516001600160501b03169350611320565b80156113205761131981611edc565b90506112b2565b505050919050565b6113328282610a09565b61047e5761133f81611518565b61134a83602061152a565b60405160200161135b929190611f17565b60408051601f198184030181529082905262461bcd60e51b825261065991600401611f8c565b61138b8282610a09565b61047e5760008281526001602081815260408084206001600160a01b0386168086529252808420805460ff19169093179092559051339285917f2f8788117e7eff1d82e926ec794901d17c78024a50270940304540a733656f0d9190a45050565b6000610a02836001600160a01b0384166116c6565b600060045460035483038161141857611418611e7a565b0492915050565b6114298282610a09565b1561047e5760008281526001602090815260408083206001600160a01b0385168085529252808320805460ff1916905551339285917ff6391f5c32d9c69d2a47ea670b442974b53935d1edc7fd64eb21e047a839171b9190a45050565b6000610a02836001600160a01b038416611715565b60006114a683611214565b9050801561046457818111156114cf5760405163023858cd60e01b815260040160405180910390fd5b600854600954610464916001600160a01b039182169133911684611808565b600082600001828154811061150557611505611e1f565b9060005260206000200154905092915050565b60606104646001600160a01b03831660145b60606000611539836002611eb2565b611544906002611ec9565b67ffffffffffffffff81111561155c5761155c611a26565b6040519080825280601f01601f191660200182016040528015611586576020820181803683370190505b509050600360fc1b816000815181106115a1576115a1611e1f565b60200101906001600160f81b031916908160001a905350600f60fb1b816001815181106115d0576115d0611e1f565b60200101906001600160f81b031916908160001a90535060006115f4846002611eb2565b6115ff906001611ec9565b90505b6001811115611677576f181899199a1a9b1b9c1cb0b131b232b360811b85600f166010811061163357611633611e1f565b1a60f81b82828151811061164957611649611e1f565b60200101906001600160f81b031916908160001a90535060049490941c9361167081611edc565b9050611602565b508315610a025760405162461bcd60e51b815260206004820181905260248201527f537472696e67733a20686578206c656e67746820696e73756666696369656e746044820152606401610659565b600081815260018301602052604081205461170d57508154600181810184556000848152602080822090930184905584548482528286019093526040902091909155610464565b506000610464565b600081815260018301602052604081205480156117fe576000611739600183611e67565b855490915060009061174d90600190611e67565b90508181146117b257600086600001828154811061176d5761176d611e1f565b906000526020600020015490508087600001848154811061179057611790611e1f565b6000918252602080832090910192909255918252600188019052604090208390555b85548690806117c3576117c3611fbf565b600190038181906000526020600020016000905590558560010160008681526020019081526020016000206000905560019350505050610464565b6000915050610464565b604080516001600160a01b0385811660248301528481166044830152606480830185905283518084039091018152608490920183526020820180516001600160e01b03166323b872dd60e01b179052915160009283929088169161186c9190611fd5565b6000604051808303816000865af19150503d80600081146118a9576040519150601f19603f3d011682016040523d82523d6000602084013e6118ae565b606091505b50915091508115806118da5750805115806118d85750808060200190518101906118d89190611ff1565b155b15611937576118f3866001600160a01b0316601461152a565b611907866001600160a01b0316601461152a565b61191b866001600160a01b0316601461152a565b6119248661193f565b60405160200161135b9493929190612013565b505050505050565b60606104648261194e84611956565b60010161152a565b600080608083901c1561196e5760809290921c916010015b604083901c156119835760409290921c916008015b602083901c156119985760209290921c916004015b601083901c156119ad5760109290921c916002015b600883901c156104645760010192915050565b508054600082559060005260206000209081019061054991905b808211156119f85780546001600160701b03191681556001016119da565b5090565b600060208284031215611a0e57600080fd5b81356001600160e01b031981168114610a0257600080fd5b634e487b7160e01b600052604160045260246000fd5b604051601f8201601f1916810167ffffffffffffffff81118282101715611a6557611a65611a26565b604052919050565b600060408284031215611a7f57600080fd5b6040516040810181811067ffffffffffffffff82111715611aa257611aa2611a26565b604052905080823563ffffffff81168114611abc57600080fd5b815260208301356001600160501b0381168114611ad857600080fd5b6020919091015292915050565b60006020808385031215611af857600080fd5b823567ffffffffffffffff80821115611b1057600080fd5b818501915085601f830112611b2457600080fd5b813581811115611b3657611b36611a26565b611b44848260051b01611a3c565b818152848101925060069190911b830184019087821115611b6457600080fd5b928401925b818410156105e257611b7b8885611a6d565b83528483019250604084019350611b69565b60008083601f840112611b9f57600080fd5b50813567ffffffffffffffff811115611bb757600080fd5b6020830191508360208260051b8501011115611bd257600080fd5b9250929050565b60008060008060408587031215611bef57600080fd5b843567ffffffffffffffff80821115611c0757600080fd5b611c1388838901611b8d565b90965094506020870135915080821115611c2c57600080fd5b50611c3987828801611b8d565b95989497509550505050565b600060208284031215611c5757600080fd5b5035919050565b80356001600160a01b0381168114611c7557600080fd5b919050565b60008060408385031215611c8d57600080fd5b82359150611c9d60208401611c5e565b90509250929050565b600060208284031215611cb857600080fd5b610a0282611c5e565b602080825282518282018190526000919060409081850190868401855b82811015611d12578151805163ffffffff1685528601516001600160501b0316868501529284019290850190600101611cde565b5091979650505050505050565b60008060408385031215611d3257600080fd5b611d3b83611c5e565b946020939093013593505050565b600080600080600080600060c0888a031215611d6457600080fd5b873596506020880135955060408801359450611d8260608901611c5e565b9350611d9060808901611c5e565b925060a088013567ffffffffffffffff80821115611dad57600080fd5b818a0191508a601f830112611dc157600080fd5b813581811115611dd057600080fd5b8b60208260061b8501011115611de557600080fd5b60208301945080935050505092959891949750929550565b60008060408385031215611e1057600080fd5b50508035926020909101359150565b634e487b7160e01b600052603260045260246000fd5b600060408284031215611e4757600080fd5b610a028383611a6d565b634e487b7160e01b600052601160045260246000fd5b8181038181111561046457610464611e51565b634e487b7160e01b600052601260045260246000fd5b600082611ead57634e487b7160e01b600052601260045260246000fd5b500490565b808202811582820484141761046457610464611e51565b8082018082111561046457610464611e51565b600081611eeb57611eeb611e51565b506000190190565b60005b83811015611f0e578181015183820152602001611ef6565b50506000910152565b7f416363657373436f6e74726f6c3a206163636f756e7420000000000000000000815260008351611f4f816017850160208801611ef3565b7001034b99036b4b9b9b4b733903937b6329607d1b6017918401918201528351611f80816028840160208801611ef3565b01602801949350505050565b6020815260008251806020840152611fab816040850160208701611ef3565b601f01601f19169190910160400192915050565b634e487b7160e01b600052603160045260246000fd5b60008251611fe7818460208701611ef3565b9190910192915050565b60006020828403121561200357600080fd5b81518015158114610a0257600080fd5b7f5472616e7366657246726f6d48656c7065723a20636f756c64206e6f7420747281526c030b739b332b9103a37b5b2b71609d1b60208201526000855161206181602d850160208a01611ef3565b65010333937b6960d51b602d918401918201528551612087816033840160208a01611ef3565b630103a37960e51b6033929091019182015284516120ac816037840160208901611ef3565b660103b30b63ab2960cd1b6037929091019182015283516120d481603e840160208801611ef3565b01603e01969550505050505056fea264697066735822122054e5f927350c4fed20a5e7ce7837d70ef9562cab4e5b1a98d1940f595c22b17764736f6c63430008170033",
    "linkReferences": {}
  },
  "methodIdentifiers": {
    "DEFAULT_ADMIN_ROLE()": "a217fddf",
    "activateStreak(address)": "31711309",
    "forceRestoreStreak(address[],uint256[])": "199fef65",
    "getActivationStatus(address)": "6d16c15b",
    "getAllRestorationCosts()": "36cee514",
    "getFreezePeriod()": "9fe4f9d6",
    "getInitialTime()": "d0b294da",
    "getPaymentToken()": "d41c3a65",
    "getResetDuration()": "1614252f",
    "getRestorationCosts(uint256)": "fc44e00b",
    "getRoleAdmin(bytes32)": "248a9ca3",
    "getRoleMember(bytes32,uint256)": "9010d07c",
    "getRoleMemberCount(bytes32)": "ca15c873",
    "getStreak(address)": "5eeadb0d",
    "getStreakLifeTime()": "64c02908",
    "getTreasury()": "3b19e84a",
    "grantRole(bytes32,address)": "2f2ff15d",
    "hasRole(bytes32,address)": "91d14854",
    "initialize(uint256,uint256,uint256,address,address,(uint32,uint80)[])": "6c7976d5",
    "isRestorable(address)": "333ebe12",
    "renounceRole(bytes32,address)": "36568abe",
    "restoreStreak(address,uint256)": "43afef80",
    "revokeRole(bytes32,address)": "d547741f",
    "setFreezePeriod(uint256)": "57120165",
    "setPaymentToken(address)": "6a326ab1",
    "setResetDuration(uint256)": "886ce65c",
    "setRestorationCosts((uint32,uint80)[])": "07a4f002",
    "setTreasury(address)": "f0f44260",
    "supportsInterface(bytes4)": "01ffc9a7"
  },
  "storageLayout": {
    "storage": [
      {
        "astId": 47171,
        "contract": "src/CheckinMock.sol:CheckinMock",
        "label": "_initialized",
        "offset": 0,
        "slot": "0",
        "type": "t_uint8"
      },
      {
        "astId": 47174,
        "contract": "src/CheckinMock.sol:CheckinMock",
        "label": "_initializing",
        "offset": 1,
        "slot": "0",
        "type": "t_bool"
      },
      {
        "astId": 46609,
        "contract": "src/CheckinMock.sol:CheckinMock",
        "label": "_roles",
        "offset": 0,
        "slot": "1",
        "type": "t_mapping(t_bytes32,t_struct(RoleData)46604_storage)"
      },
      {
        "astId": 46919,
        "contract": "src/CheckinMock.sol:CheckinMock",
        "label": "_roleMembers",
        "offset": 0,
        "slot": "2",
        "type": "t_mapping(t_bytes32,t_struct(AddressSet)49937_storage)"
      },
      {
        "astId": 51278,
        "contract": "src/CheckinMock.sol:CheckinMock",
        "label": "_initialTime",
        "offset": 0,
        "slot": "3",
        "type": "t_uint256"
      },
      {
        "astId": 51280,
        "contract": "src/CheckinMock.sol:CheckinMock",
        "label": "_streakLifeTime",
        "offset": 0,
        "slot": "4",
        "type": "t_uint256"
      },
      {
        "astId": 51285,
        "contract": "src/CheckinMock.sol:CheckinMock",
        "label": "_usersStreakMap",
        "offset": 0,
        "slot": "5",
        "type": "t_mapping(t_address,t_struct(Streak)52416_storage)"
      },
      {
        "astId": 51288,
        "contract": "src/CheckinMock.sol:CheckinMock",
        "label": "_resetTime",
        "offset": 0,
        "slot": "6",
        "type": "t_uint256"
      },
      {
        "astId": 51291,
        "contract": "src/CheckinMock.sol:CheckinMock",
        "label": "_freezeTime",
        "offset": 0,
        "slot": "7",
        "type": "t_uint256"
      },
      {
        "astId": 51294,
        "contract": "src/CheckinMock.sol:CheckinMock",
        "label": "_treasury",
        "offset": 0,
        "slot": "8",
        "type": "t_address"
      },
      {
        "astId": 51297,
        "contract": "src/CheckinMock.sol:CheckinMock",
        "label": "_paymentToken",
        "offset": 0,
        "slot": "9",
        "type": "t_address"
      },
      {
        "astId": 51302,
        "contract": "src/CheckinMock.sol:CheckinMock",
        "label": "_restorationCosts",
        "offset": 0,
        "slot": "10",
        "type": "t_array(t_struct(RestorationCost)52421_storage)dyn_storage"
      }
    ],
    "types": {
      "t_address": {
        "encoding": "inplace",
        "label": "address",
        "numberOfBytes": "20"
      },
      "t_array(t_bytes32)dyn_storage": {
        "encoding": "dynamic_array",
        "label": "bytes32[]",
        "numberOfBytes": "32",
        "base": "t_bytes32"
      },
      "t_array(t_struct(RestorationCost)52421_storage)dyn_storage": {
        "encoding": "dynamic_array",
        "label": "struct ICheckin.RestorationCost[]",
        "numberOfBytes": "32",
        "base": "t_struct(RestorationCost)52421_storage"
      },
      "t_bool": {
        "encoding": "inplace",
        "label": "bool",
        "numberOfBytes": "1"
      },
      "t_bytes32": {
        "encoding": "inplace",
        "label": "bytes32",
        "numberOfBytes": "32"
      },
      "t_mapping(t_address,t_bool)": {
        "encoding": "mapping",
        "key": "t_address",
        "label": "mapping(address => bool)",
        "numberOfBytes": "32",
        "value": "t_bool"
      },
      "t_mapping(t_address,t_struct(Streak)52416_storage)": {
        "encoding": "mapping",
        "key": "t_address",
        "label": "mapping(address => struct ICheckin.Streak)",
        "numberOfBytes": "32",
        "value": "t_struct(Streak)52416_storage"
      },
      "t_mapping(t_bytes32,t_struct(AddressSet)49937_storage)": {
        "encoding": "mapping",
        "key": "t_bytes32",
        "label": "mapping(bytes32 => struct EnumerableSet.AddressSet)",
        "numberOfBytes": "32",
        "value": "t_struct(AddressSet)49937_storage"
      },
      "t_mapping(t_bytes32,t_struct(RoleData)46604_storage)": {
        "encoding": "mapping",
        "key": "t_bytes32",
        "label": "mapping(bytes32 => struct AccessControl.RoleData)",
        "numberOfBytes": "32",
        "value": "t_struct(RoleData)46604_storage"
      },
      "t_mapping(t_bytes32,t_uint256)": {
        "encoding": "mapping",
        "key": "t_bytes32",
        "label": "mapping(bytes32 => uint256)",
        "numberOfBytes": "32",
        "value": "t_uint256"
      },
      "t_struct(AddressSet)49937_storage": {
        "encoding": "inplace",
        "label": "struct EnumerableSet.AddressSet",
        "numberOfBytes": "64",
        "members": [
          {
            "astId": 49936,
            "contract": "src/CheckinMock.sol:CheckinMock",
            "label": "_inner",
            "offset": 0,
            "slot": "0",
            "type": "t_struct(Set)49622_storage"
          }
        ]
      },
      "t_struct(RestorationCost)52421_storage": {
        "encoding": "inplace",
        "label": "struct ICheckin.RestorationCost",
        "numberOfBytes": "32",
        "members": [
          {
            "astId": 52418,
            "contract": "src/CheckinMock.sol:CheckinMock",
            "label": "lowerMilestone",
            "offset": 0,
            "slot": "0",
            "type": "t_uint32"
          },
          {
            "astId": 52420,
            "contract": "src/CheckinMock.sol:CheckinMock",
            "label": "costInToken",
            "offset": 4,
            "slot": "0",
            "type": "t_uint80"
          }
        ]
      },
      "t_struct(RoleData)46604_storage": {
        "encoding": "inplace",
        "label": "struct AccessControl.RoleData",
        "numberOfBytes": "64",
        "members": [
          {
            "astId": 46601,
            "contract": "src/CheckinMock.sol:CheckinMock",
            "label": "members",
            "offset": 0,
            "slot": "0",
            "type": "t_mapping(t_address,t_bool)"
          },
          {
            "astId": 46603,
            "contract": "src/CheckinMock.sol:CheckinMock",
            "label": "adminRole",
            "offset": 0,
            "slot": "1",
            "type": "t_bytes32"
          }
        ]
      },
      "t_struct(Set)49622_storage": {
        "encoding": "inplace",
        "label": "struct EnumerableSet.Set",
        "numberOfBytes": "64",
        "members": [
          {
            "astId": 49617,
            "contract": "src/CheckinMock.sol:CheckinMock",
            "label": "_values",
            "offset": 0,
            "slot": "0",
            "type": "t_array(t_bytes32)dyn_storage"
          },
          {
            "astId": 49621,
            "contract": "src/CheckinMock.sol:CheckinMock",
            "label": "_indexes",
            "offset": 0,
            "slot": "1",
            "type": "t_mapping(t_bytes32,t_uint256)"
          }
        ]
      },
      "t_struct(Streak)52416_storage": {
        "encoding": "inplace",
        "label": "struct ICheckin.Streak",
        "numberOfBytes": "96",
        "members": [
          {
            "astId": 52411,
            "contract": "src/CheckinMock.sol:CheckinMock",
            "label": "count",
            "offset": 0,
            "slot": "0",
            "type": "t_uint256"
          },
          {
            "astId": 52413,
            "contract": "src/CheckinMock.sol:CheckinMock",
            "label": "lastActivated",
            "offset": 0,
            "slot": "1",
            "type": "t_uint256"
          },
          {
            "astId": 52415,
            "contract": "src/CheckinMock.sol:CheckinMock",
            "label": "longestCount",
            "offset": 0,
            "slot": "2",
            "type": "t_uint256"
          }
        ]
      },
      "t_uint256": {
        "encoding": "inplace",
        "label": "uint256",
        "numberOfBytes": "32"
      },
      "t_uint32": {
        "encoding": "inplace",
        "label": "uint32",
        "numberOfBytes": "4"
      },
      "t_uint8": {
        "encoding": "inplace",
        "label": "uint8",
        "numberOfBytes": "1"
      },
      "t_uint80": {
        "encoding": "inplace",
        "label": "uint80",
        "numberOfBytes": "10"
      }
    }
  },
  "userdoc": {
    "version": 1,
    "kind": "user"
  },
  "devdoc": {
    "version": 1,
    "kind": "dev",
    "methods": {
      "forceRestoreStreak(address[],uint256[])": {
        "details": "Restore streak amount. Requirements: - The caller must be default admin."
      },
      "getActivationStatus(address)": {
        "details": "Get the activation status of `user`.",
        "returns": {
          "hasCheckedToday": "Indicates whether the address `user` has prayed today.",
          "isLostStreak": "Indicates whether the streak is lost."
        }
      },
      "getAllRestorationCosts()": {
        "details": "Returns all the cost in usd according to the lower milestones."
      },
      "getFreezePeriod()": {
        "details": "Returns the freeze period in timestamp for restoration."
      },
      "getInitialTime()": {
        "details": "Returns the Initail Time calculated based on the UTC."
      },
      "getPaymentToken()": {
        "details": "Returns the address of token of restoration fee."
      },
      "getResetDuration()": {
        "details": "Returns the reset duration calculated based on the UTC."
      },
      "getRestorationCosts(uint256)": {
        "details": "Returns the cost in usd and cost in `paymentToken` according to the the lost streak count."
      },
      "getRoleAdmin(bytes32)": {
        "details": "Returns the admin role that controls `role`. See {grantRole} and {revokeRole}. To change a role's admin, use {_setRoleAdmin}."
      },
      "getRoleMember(bytes32,uint256)": {
        "details": "Returns one of the accounts that have `role`. `index` must be a value between 0 and {getRoleMemberCount}, non-inclusive. Role bearers are not sorted in any particular way, and their ordering may change at any point. WARNING: When using {getRoleMember} and {getRoleMemberCount}, make sure you perform all queries on the same block. See the following https://forum.openzeppelin.com/t/iterating-over-elements-on-enumerableset-in-openzeppelin-contracts/2296[forum post] for more information."
      },
      "getRoleMemberCount(bytes32)": {
        "details": "Returns the number of accounts that have `role`. Can be used together with {getRoleMember} to enumerate all bearers of a role."
      },
      "getStreak(address)": {
        "details": "Returns streak info including amount and last update timestamp of sender.",
        "returns": {
          "currentStreakCount": "The current streak count, equal to zero whether streak is lost.",
          "lastActivated": "The last pray timestamp.",
          "longestStreakCount": "The longest streak count, only affected from upgrading V3.",
          "lostStreakCount": "The lost streak count, equal to zero whether streak is still alive."
        }
      },
      "getStreakLifeTime()": {
        "details": "Returns active streak life time."
      },
      "getTreasury()": {
        "details": "Returns the address treasury where receive the restoration fee."
      },
      "grantRole(bytes32,address)": {
        "details": "Grants `role` to `account`. If `account` had not been already granted `role`, emits a {RoleGranted} event. Requirements: - the caller must have ``role``'s admin role. May emit a {RoleGranted} event."
      },
      "hasRole(bytes32,address)": {
        "details": "Returns `true` if `account` has been granted `role`."
      },
      "isRestorable(address)": {
        "details": "Return the restorable of `user`'s lost streak."
      },
      "renounceRole(bytes32,address)": {
        "details": "Revokes `role` from the calling account. Roles are often managed via {grantRole} and {revokeRole}: this function's purpose is to provide a mechanism for accounts to lose their privileges if they are compromised (such as when a trusted device is misplaced). If the calling account had been revoked `role`, emits a {RoleRevoked} event. Requirements: - the caller must be `account`. May emit a {RoleRevoked} event."
      },
      "revokeRole(bytes32,address)": {
        "details": "Revokes `role` from `account`. If `account` had been granted `role`, emits a {RoleRevoked} event. Requirements: - the caller must have ``role``'s admin role. May emit a {RoleRevoked} event."
      },
      "setFreezePeriod(uint256)": {
        "details": "Update freeze period. Requirements: - The caller must has `DEFAULT_ADMIN_ROLE`. Emits {FreezePeriodUpdated} event."
      },
      "setPaymentToken(address)": {
        "details": "Update address of payment token. Requirements: - The caller must has `DEFAULT_ADMIN_ROLE`. Emits {PaymentTokenUpdated} event."
      },
      "setResetDuration(uint256)": {
        "details": "Set new reset duration for streak.",
        "params": {
          "newResetDuration": "The reset duration time. Requirements: - The caller must be default admin. - The reset duration must be less than the streak life time. Emits the {ErrInvalidResetDuration} event."
        }
      },
      "setRestorationCosts((uint32,uint80)[])": {
        "details": "Update the cost for restoration. Requirements: - The caller must has `DEFAULT_ADMIN_ROLE`. - The array `restorationCost` must be sorted as ascending by `lowerMilestone`. Emits {RestorationCostUpdated} event."
      },
      "setTreasury(address)": {
        "details": "Update address of treasury. Requirements: - The caller must has `DEFAULT_ADMIN_ROLE`. Emits {TreasuryUpdated} event."
      },
      "supportsInterface(bytes4)": {
        "details": "See {IERC165-supportsInterface}."
      }
    },
    "events": {
      "CheckerCountSynced(address,(uint64,uint64))": {
        "details": "Emitted when the prayer count synced daily."
      },
      "FreezePeriodUpdated(uint256)": {
        "details": "Emitted when the freeze period is updated."
      },
      "InitialTimeUpdated(uint256)": {
        "details": "Emitted when the initial time is updated."
      },
      "Initialized(uint8)": {
        "details": "Triggered when the contract has been initialized or reinitialized."
      },
      "PaymentTokenUpdated(address)": {
        "details": "Emitted when payment token is updated."
      },
      "ResetDurationUpdated(uint256)": {
        "details": "Emitted when the reset steak duration is updated."
      },
      "RestorationCostUpdated((uint32,uint80)[])": {
        "details": "Emitted when the restoration cost is updated."
      },
      "RoleAdminChanged(bytes32,bytes32,bytes32)": {
        "details": "Emitted when `newAdminRole` is set as ``role``'s admin role, replacing `previousAdminRole` `DEFAULT_ADMIN_ROLE` is the starting admin for all roles, despite {RoleAdminChanged} not being emitted signaling this. _Available since v3.1._"
      },
      "RoleGranted(bytes32,address,address)": {
        "details": "Emitted when `account` is granted `role`. `sender` is the account that originated the contract call, an admin role bearer except when using {AccessControl-_setupRole}."
      },
      "RoleRevoked(bytes32,address,address)": {
        "details": "Emitted when `account` is revoked `role`. `sender` is the account that originated the contract call:   - if using `revokeRole`, it is the admin role bearer   - if using `renounceRole`, it is the role bearer (i.e. `account`)"
      },
      "StreakLifeTimeChanged(uint256)": {
        "details": "Emitted when active streak lifetime duration is updated."
      },
      "StreakRestored(address,uint256,uint256,uint256)": {
        "details": "Emitted when the daily streak of an address of is updated."
      },
      "StreakUpdated(address,uint256,uint256,uint256)": {
        "details": "Emitted when the daily streak of an address of is updated."
      },
      "TreasuryUpdated(address)": {
        "details": "Emitted when treasury is updated."
      }
    },
    "errors": {
      "ErrAlreadyActivatedStreak()": [
        {
          "details": "Error when streak is still active."
        }
      ],
      "ErrCallerNotDelegated()": [
        {
          "details": "Revert when the caller is not delegated by the address `to`."
        }
      ],
      "ErrFreezeTimeEnded()": [
        {
          "details": "Revert when the freeze time period has already ended."
        }
      ],
      "ErrInsufficientPayment()": [
        {
          "details": "Revert when the amount acceptable is insufficient for restoration."
        }
      ],
      "ErrInvalidLength()": [
        {
          "details": "Revert when length of input arrays are mismatch."
        }
      ],
      "ErrInvalidOrderOfRestorationCosts()": [
        {
          "details": "Revert when the order of restoration cost array is not ascending based on 'lowerMilestone'."
        }
      ],
      "ErrInvalidResetDuration()": [
        {
          "details": "Error when the reset duration is larger than the streak lifetime."
        }
      ],
      "ErrInvalidStreakLifeTime()": [
        {
          "details": "Error when streak lifetime is invalid e.g. when streak lifetime is 0."
        }
      ],
      "ErrNoLostStreak()": [
        {
          "details": "Revert when there is no lost streak to restore."
        }
      ],
      "ErrStartNewStreakByDelegatee()": [
        {
          "details": "Revert when delegatee attempts start new streak for delegator."
        }
      ],
      "ErrZeroLostStreakCount()": [
        {
          "details": "Revert when attempting to restore a streak, but the last streak count is 0."
        }
      ]
    }
  },
  "id": 44
}